:1000000080318D2800003008A5002F08A4002E089C
:10001000A3002D08A2008031B5282508B0002408CF
:10002000AF002308AE002208AD004130B400C63056
:10003000B3004E30B2006D30B1002030B900B501D0
:10004000B601B701B8013008FA002F08F9002E08F0
:10005000F8002D08F7000310771C3C283108B5077D
:1000600032080318320FB60733080318330FB707E7
:1000700034080318340FB807B80CB70CB60CB50C1D
:10008000FA0CF90CF80CF70CB90B2B283930770760
:10009000A2003030783DA3000030793DA40000304C
:1000A0007A3DA5002408F7002508F800F901FA01B7
:1000B0007808AF007708AE002F08B1002E08B00016
:1000C000B3010630B200F801F901F701FA01330873
:1000D000031D6D283208031987281030B40003105F
:1000E000B00DB10DF70DFA0D33087A02031D7A2811
:1000F00032087702031C83283208F702031CFA0334
:100100003308FA020314F80DF90DB40B6F287708C1
:10011000F8007A08F9008031BD2823008C018D0198
:10012000220092019101940193012000A001A101FC
:10013000FF306500003066000630A6005B30A70087
:100140004F30A8006630A9006D30AA007D30AB00AA
:10015000AC0121008D017F3022008D002000B00114
:10016000AF01AE010130AD0003280C1CCF282100E7
:100170000C1420000C18B7280D287808AC000630A5
:100180002C078400203085000318850A0008AD0084
:1001900021008D0120002D0822008D002000B528AF
:0201A0006300FA
:020000040001F9
:04000E00C139FF1ED7
:00000001FF
;PIC16F1827
;CRC=703E  CREATED="25-mar.-21 22:51"
